{"abi":[{"type":"constructor","inputs":[],"stateMutability":"nonpayable"},{"type":"function","name":"getAllRegisteredMachineIds","inputs":[],"outputs":[{"name":"","type":"string[]","internalType":"string[]"}],"stateMutability":"view"},{"type":"function","name":"getMachineIdByPublicKey","inputs":[{"name":"_publicKey","type":"string","internalType":"string"}],"outputs":[{"name":"","type":"string","internalType":"string"}],"stateMutability":"view"},{"type":"function","name":"getPublicKeyByMachineId","inputs":[{"name":"_machineId","type":"string","internalType":"string"}],"outputs":[{"name":"","type":"string","internalType":"string"}],"stateMutability":"view"},{"type":"function","name":"getTotalRegisteredMachines","inputs":[],"outputs":[{"name":"","type":"uint256","internalType":"uint256"}],"stateMutability":"view"},{"type":"function","name":"isMachineIdExists","inputs":[{"name":"_machineId","type":"string","internalType":"string"}],"outputs":[{"name":"","type":"bool","internalType":"bool"}],"stateMutability":"view"},{"type":"function","name":"isPublicKeyExists","inputs":[{"name":"_publicKey","type":"string","internalType":"string"}],"outputs":[{"name":"","type":"bool","internalType":"bool"}],"stateMutability":"view"},{"type":"function","name":"machineIdToPublicKey","inputs":[{"name":"","type":"string","internalType":"string"}],"outputs":[{"name":"","type":"string","internalType":"string"}],"stateMutability":"view"},{"type":"function","name":"owner","inputs":[],"outputs":[{"name":"","type":"address","internalType":"address"}],"stateMutability":"view"},{"type":"function","name":"publicKeyToMachineId","inputs":[{"name":"","type":"string","internalType":"string"}],"outputs":[{"name":"","type":"string","internalType":"string"}],"stateMutability":"view"},{"type":"function","name":"registerMachine","inputs":[{"name":"_machineId","type":"string","internalType":"string"},{"name":"_publicKey","type":"string","internalType":"string"}],"outputs":[],"stateMutability":"nonpayable"},{"type":"function","name":"registeredMachineIds","inputs":[{"name":"","type":"uint256","internalType":"uint256"}],"outputs":[{"name":"","type":"string","internalType":"string"}],"stateMutability":"view"},{"type":"function","name":"removeMachine","inputs":[{"name":"_machineId","type":"string","internalType":"string"}],"outputs":[],"stateMutability":"nonpayable"},{"type":"function","name":"renounceOwnership","inputs":[],"outputs":[],"stateMutability":"nonpayable"},{"type":"function","name":"transferOwnership","inputs":[{"name":"_newOwner","type":"address","internalType":"address"}],"outputs":[],"stateMutability":"nonpayable"},{"type":"function","name":"updateMachinePublicKey","inputs":[{"name":"_machineId","type":"string","internalType":"string"},{"name":"_newPublicKey","type":"string","internalType":"string"}],"outputs":[],"stateMutability":"nonpayable"},{"type":"event","name":"MachineRegistered","inputs":[{"name":"machineId","type":"string","indexed":true,"internalType":"string"},{"name":"publicKey","type":"string","indexed":false,"internalType":"string"},{"name":"registrant","type":"address","indexed":true,"internalType":"address"}],"anonymous":false},{"type":"event","name":"MachineRemoved","inputs":[{"name":"machineId","type":"string","indexed":true,"internalType":"string"},{"name":"publicKey","type":"string","indexed":false,"internalType":"string"}],"anonymous":false},{"type":"event","name":"OwnershipTransferred","inputs":[{"name":"previousOwner","type":"address","indexed":true,"internalType":"address"},{"name":"newOwner","type":"address","indexed":true,"internalType":"address"}],"anonymous":false}],"bytecode":{"object":"0x6080604052348015600e575f5ffd5b50335f5f6101000a81548173ffffffffffffffffffffffffffffffffffffffff021916908373ffffffffffffffffffffffffffffffffffffffff1602179055506121d48061005b5f395ff3fe608060405234801561000f575f5ffd5b50600436106100f2575f3560e01c8063848c378d11610095578063b4168b1b11610064578063b4168b1b14610294578063b7286706146102b2578063d504c07a146102ce578063f2fde38b146102fe576100f2565b8063848c378d146101fa5780638da5cb5b1461022a5780638dddee1b14610248578063a783e53b14610278576100f2565b806354f78446116100d157806354f78446146101605780636a1b27ed14610190578063715018a6146101c0578063773f317d146101ca576100f2565b8062173cc2146100f657806326b1c26d146101125780633ef62c2214610142575b5f5ffd5b610110600480360381019061010b919061140e565b61031a565b005b61012c6004803603810190610127919061140e565b61055e565b604051610139919061146f565b60405180910390f35b61014a610593565b60405161015791906114a0565b60405180910390f35b61017a6004803603810190610175919061140e565b61059f565b6040516101879190611519565b60405180910390f35b6101aa60048036038101906101a5919061140e565b610652565b6040516101b79190611519565b60405180910390f35b6101c861076c565b005b6101e460048036038101906101df919061140e565b610834565b6040516101f19190611519565b60405180910390f35b610214600480360381019061020f919061140e565b61094e565b6040516102219190611519565b60405180910390f35b610232610a01565b60405161023f9190611578565b60405180910390f35b610262600480360381019061025d919061140e565b610a25565b60405161026f919061146f565b60405180910390f35b610292600480360381019061028d9190611591565b610a5a565b005b61029c610c4d565b6040516102a9919061170a565b60405180910390f35b6102cc60048036038101906102c79190611591565b610d21565b005b6102e860048036038101906102e39190611754565b610eaf565b6040516102f59190611519565b60405180910390f35b610318600480360381019061031391906117a9565b610f55565b005b61032261108c565b8061032c8161111c565b5f60018360405161033d919061180e565b9081526020016040518091039020805461035690611851565b80601f016020809104026020016040519081016040528092919081815260200182805461038290611851565b80156103cd5780601f106103a4576101008083540402835291602001916103cd565b820191905f5260205f20905b8154815290600101906020018083116103b057829003601f168201915b505050505090506001836040516103e4919061180e565b90815260200160405180910390205f6103fd9190611269565b60028160405161040d919061180e565b90815260200160405180910390205f6104269190611269565b5f5f90505b60038054905081101561050b5783805190602001206003828154811061045457610453611881565b5b905f5260205f2001604051610469919061194a565b6040518091039020036104fe576003600160038054905061048a919061198d565b8154811061049b5761049a611881565b5b905f5260205f2001600382815481106104b7576104b6611881565b5b905f5260205f200190816104cb9190611b87565b5060038054806104de576104dd611c6c565b5b600190038181905f5260205f20015f6104f79190611269565b905561050b565b808060010191505061042b565b508260405161051a919061180e565b60405180910390207f339fec9a0396cf57826faf490462091fbfd5af3bb71231eedb78e4bf428f9ee6826040516105519190611519565b60405180910390a2505050565b5f5f600183604051610570919061180e565b9081526020016040518091039020805461058990611851565b9050119050919050565b5f600380549050905090565b6002818051602081018201805184825260208301602085012081835280955050505050505f9150905080546105d390611851565b80601f01602080910402602001604051908101604052809291908181526020018280546105ff90611851565b801561064a5780601f106106215761010080835404028352916020019161064a565b820191905f5260205f20905b81548152906001019060200180831161062d57829003601f168201915b505050505081565b60605f600183604051610665919061180e565b9081526020016040518091039020805461067e90611851565b9050116106c0576040517f08c379a00000000000000000000000000000000000000000000000000000000081526004016106b790611ce3565b60405180910390fd5b6001826040516106d0919061180e565b908152602001604051809103902080546106e990611851565b80601f016020809104026020016040519081016040528092919081815260200182805461071590611851565b80156107605780601f1061073757610100808354040283529160200191610760565b820191905f5260205f20905b81548152906001019060200180831161074357829003601f168201915b50505050509050919050565b61077461108c565b5f5f5f9054906101000a900473ffffffffffffffffffffffffffffffffffffffff1690505f5f5f6101000a81548173ffffffffffffffffffffffffffffffffffffffff021916908373ffffffffffffffffffffffffffffffffffffffff1602179055505f73ffffffffffffffffffffffffffffffffffffffff168173ffffffffffffffffffffffffffffffffffffffff167f8be0079c531659141344cd1fd0a4f28419497f9722a3daafe3b4186f6b6457e060405160405180910390a350565b60605f600283604051610847919061180e565b9081526020016040518091039020805461086090611851565b9050116108a2576040517f08c379a000000000000000000000000000000000000000000000000000000000815260040161089990611d4b565b60405180910390fd5b6002826040516108b2919061180e565b908152602001604051809103902080546108cb90611851565b80601f01602080910402602001604051908101604052809291908181526020018280546108f790611851565b80156109425780601f1061091957610100808354040283529160200191610942565b820191905f5260205f20905b81548152906001019060200180831161092557829003601f168201915b50505050509050919050565b6001818051602081018201805184825260208301602085012081835280955050505050505f91509050805461098290611851565b80601f01602080910402602001604051908101604052809291908181526020018280546109ae90611851565b80156109f95780601f106109d0576101008083540402835291602001916109f9565b820191905f5260205f20905b8154815290600101906020018083116109dc57829003601f168201915b505050505081565b5f5f9054906101000a900473ffffffffffffffffffffffffffffffffffffffff1681565b5f5f600283604051610a37919061180e565b90815260200160405180910390208054610a5090611851565b9050119050919050565b610a6261108c565b81610a6c8161111c565b81610a768161118b565b5f835111610ab9576040517f08c379a0000000000000000000000000000000000000000000000000000000008152600401610ab090611db3565b60405180910390fd5b5f600185604051610aca919061180e565b90815260200160405180910390208054610ae390611851565b80601f0160208091040260200160405190810160405280929190818152602001828054610b0f90611851565b8015610b5a5780601f10610b3157610100808354040283529160200191610b5a565b820191905f5260205f20905b815481529060010190602001808311610b3d57829003601f168201915b50505050509050600281604051610b71919061180e565b90815260200160405180910390205f610b8a9190611269565b83600186604051610b9b919061180e565b90815260200160405180910390209081610bb59190611dd1565b5084600285604051610bc7919061180e565b90815260200160405180910390209081610be19190611dd1565b503373ffffffffffffffffffffffffffffffffffffffff1685604051610c07919061180e565b60405180910390207f0f18dbaba041a0aad7ed05e4f5a3e09a7e6d18ebc315b008850003231fc5824b86604051610c3e9190611519565b60405180910390a35050505050565b60606003805480602002602001604051908101604052809291908181526020015f905b82821015610d18578382905f5260205f20018054610c8d90611851565b80601f0160208091040260200160405190810160405280929190818152602001828054610cb990611851565b8015610d045780601f10610cdb57610100808354040283529160200191610d04565b820191905f5260205f20905b815481529060010190602001808311610ce757829003601f168201915b505050505081526020019060010190610c70565b50505050905090565b81610d2b816111fa565b81610d358161118b565b5f845111610d78576040517f08c379a0000000000000000000000000000000000000000000000000000000008152600401610d6f90611eea565b60405180910390fd5b5f835111610dbb576040517f08c379a0000000000000000000000000000000000000000000000000000000008152600401610db290611f52565b60405180910390fd5b82600185604051610dcc919061180e565b90815260200160405180910390209081610de69190611dd1565b5083600284604051610df8919061180e565b90815260200160405180910390209081610e129190611dd1565b50600384908060018154018082558091505060019003905f5260205f20015f909190919091509081610e449190611dd1565b503373ffffffffffffffffffffffffffffffffffffffff1684604051610e6a919061180e565b60405180910390207f0f18dbaba041a0aad7ed05e4f5a3e09a7e6d18ebc315b008850003231fc5824b85604051610ea19190611519565b60405180910390a350505050565b60038181548110610ebe575f80fd5b905f5260205f20015f915090508054610ed690611851565b80601f0160208091040260200160405190810160405280929190818152602001828054610f0290611851565b8015610f4d5780601f10610f2457610100808354040283529160200191610f4d565b820191905f5260205f20905b815481529060010190602001808311610f3057829003601f168201915b505050505081565b610f5d61108c565b5f73ffffffffffffffffffffffffffffffffffffffff168173ffffffffffffffffffffffffffffffffffffffff1603610fcb576040517f08c379a0000000000000000000000000000000000000000000000000000000008152600401610fc290611fba565b60405180910390fd5b5f5f5f9054906101000a900473ffffffffffffffffffffffffffffffffffffffff169050815f5f6101000a81548173ffffffffffffffffffffffffffffffffffffffff021916908373ffffffffffffffffffffffffffffffffffffffff1602179055508173ffffffffffffffffffffffffffffffffffffffff168173ffffffffffffffffffffffffffffffffffffffff167f8be0079c531659141344cd1fd0a4f28419497f9722a3daafe3b4186f6b6457e060405160405180910390a35050565b5f5f9054906101000a900473ffffffffffffffffffffffffffffffffffffffff1673ffffffffffffffffffffffffffffffffffffffff163373ffffffffffffffffffffffffffffffffffffffff161461111a576040517f08c379a000000000000000000000000000000000000000000000000000000000815260040161111190612048565b60405180910390fd5b565b5f60018260405161112d919061180e565b9081526020016040518091039020805461114690611851565b905011611188576040517f08c379a000000000000000000000000000000000000000000000000000000000815260040161117f906120b0565b60405180910390fd5b50565b5f60028260405161119c919061180e565b908152602001604051809103902080546111b590611851565b9050146111f7576040517f08c379a00000000000000000000000000000000000000000000000000000000081526004016111ee90612118565b60405180910390fd5b50565b5f60018260405161120b919061180e565b9081526020016040518091039020805461122490611851565b905014611266576040517f08c379a000000000000000000000000000000000000000000000000000000000815260040161125d90612180565b60405180910390fd5b50565b50805461127590611851565b5f825580601f1061128657506112a3565b601f0160209004905f5260205f20908101906112a291906112a6565b5b50565b5b808211156112bd575f815f9055506001016112a7565b5090565b5f604051905090565b5f5ffd5b5f5ffd5b5f5ffd5b5f5ffd5b5f601f19601f8301169050919050565b7f4e487b71000000000000000000000000000000000000000000000000000000005f52604160045260245ffd5b611320826112da565b810181811067ffffffffffffffff8211171561133f5761133e6112ea565b5b80604052505050565b5f6113516112c1565b905061135d8282611317565b919050565b5f67ffffffffffffffff82111561137c5761137b6112ea565b5b611385826112da565b9050602081019050919050565b828183375f83830152505050565b5f6113b26113ad84611362565b611348565b9050828152602081018484840111156113ce576113cd6112d6565b5b6113d9848285611392565b509392505050565b5f82601f8301126113f5576113f46112d2565b5b81356114058482602086016113a0565b91505092915050565b5f60208284031215611423576114226112ca565b5b5f82013567ffffffffffffffff8111156114405761143f6112ce565b5b61144c848285016113e1565b91505092915050565b5f8115159050919050565b61146981611455565b82525050565b5f6020820190506114825f830184611460565b92915050565b5f819050919050565b61149a81611488565b82525050565b5f6020820190506114b35f830184611491565b92915050565b5f81519050919050565b5f82825260208201905092915050565b8281835e5f83830152505050565b5f6114eb826114b9565b6114f581856114c3565b93506115058185602086016114d3565b61150e816112da565b840191505092915050565b5f6020820190508181035f83015261153181846114e1565b905092915050565b5f73ffffffffffffffffffffffffffffffffffffffff82169050919050565b5f61156282611539565b9050919050565b61157281611558565b82525050565b5f60208201905061158b5f830184611569565b92915050565b5f5f604083850312156115a7576115a66112ca565b5b5f83013567ffffffffffffffff8111156115c4576115c36112ce565b5b6115d0858286016113e1565b925050602083013567ffffffffffffffff8111156115f1576115f06112ce565b5b6115fd858286016113e1565b9150509250929050565b5f81519050919050565b5f82825260208201905092915050565b5f819050602082019050919050565b5f82825260208201905092915050565b5f61164a826114b9565b6116548185611630565b93506116648185602086016114d3565b61166d816112da565b840191505092915050565b5f6116838383611640565b905092915050565b5f602082019050919050565b5f6116a182611607565b6116ab8185611611565b9350836020820285016116bd85611621565b805f5b858110156116f857848403895281516116d98582611678565b94506116e48361168b565b925060208a019950506001810190506116c0565b50829750879550505050505092915050565b5f6020820190508181035f8301526117228184611697565b905092915050565b61173381611488565b811461173d575f5ffd5b50565b5f8135905061174e8161172a565b92915050565b5f60208284031215611769576117686112ca565b5b5f61177684828501611740565b91505092915050565b61178881611558565b8114611792575f5ffd5b50565b5f813590506117a38161177f565b92915050565b5f602082840312156117be576117bd6112ca565b5b5f6117cb84828501611795565b91505092915050565b5f81905092915050565b5f6117e8826114b9565b6117f281856117d4565b93506118028185602086016114d3565b80840191505092915050565b5f61181982846117de565b915081905092915050565b7f4e487b71000000000000000000000000000000000000000000000000000000005f52602260045260245ffd5b5f600282049050600182168061186857607f821691505b60208210810361187b5761187a611824565b5b50919050565b7f4e487b71000000000000000000000000000000000000000000000000000000005f52603260045260245ffd5b5f81905092915050565b5f819050815f5260205f209050919050565b5f81546118d681611851565b6118e081866118ae565b9450600182165f81146118fa576001811461190f57611941565b60ff1983168652811515820286019350611941565b611918856118b8565b5f5b838110156119395781548189015260018201915060208101905061191a565b838801955050505b50505092915050565b5f61195582846118ca565b915081905092915050565b7f4e487b71000000000000000000000000000000000000000000000000000000005f52601160045260245ffd5b5f61199782611488565b91506119a283611488565b92508282039050818111156119ba576119b9611960565b5b92915050565b5f815490506119ce81611851565b9050919050565b5f819050815f5260205f209050919050565b5f819050815f5260205f209050919050565b5f6020601f8301049050919050565b5f82821b905092915050565b5f60088302611a437fffffffffffffffffffffffffffffffffffffffffffffffffffffffffffffffff82611a08565b611a4d8683611a08565b95508019841693508086168417925050509392505050565b5f819050919050565b5f611a88611a83611a7e84611488565b611a65565b611488565b9050919050565b5f819050919050565b611aa183611a6e565b611ab5611aad82611a8f565b848454611a14565b825550505050565b5f5f905090565b611acc611abd565b611ad7818484611a98565b505050565b5b81811015611afa57611aef5f82611ac4565b600181019050611add565b5050565b601f821115611b3f57611b10816119d5565b611b19846119f9565b81016020851015611b28578190505b611b3c611b34856119f9565b830182611adc565b50505b505050565b5f82821c905092915050565b5f611b5f5f1984600802611b44565b1980831691505092915050565b5f611b778383611b50565b9150826002028217905092915050565b818103611b95575050611c6a565b611b9e826119c0565b67ffffffffffffffff811115611bb757611bb66112ea565b5b611bc18254611851565b611bcc828285611afe565b5f601f831160018114611bf9575f8415611be7578287015490505b611bf18582611b6c565b865550611c63565b601f198416611c07876119e7565b9650611c12866119d5565b5f5b82811015611c3957848901548255600182019150600185019450602081019050611c14565b86831015611c565784890154611c52601f891682611b50565b8355505b6001600288020188555050505b5050505050505b565b7f4e487b71000000000000000000000000000000000000000000000000000000005f52603160045260245ffd5b7f4d616368696e65204944206e6f742072656769737465726564000000000000005f82015250565b5f611ccd6019836114c3565b9150611cd882611c99565b602082019050919050565b5f6020820190508181035f830152611cfa81611cc1565b9050919050565b7f5075626c6963206b6579206e6f742072656769737465726564000000000000005f82015250565b5f611d356019836114c3565b9150611d4082611d01565b602082019050919050565b5f6020820190508181035f830152611d6281611d29565b9050919050565b7f4e6577207075626c6963206b65792063616e6e6f7420626520656d70747900005f82015250565b5f611d9d601e836114c3565b9150611da882611d69565b602082019050919050565b5f6020820190508181035f830152611dca81611d91565b9050919050565b611dda826114b9565b67ffffffffffffffff811115611df357611df26112ea565b5b611dfd8254611851565b611e08828285611afe565b5f60209050601f831160018114611e39575f8415611e27578287015190505b611e318582611b6c565b865550611e98565b601f198416611e47866119d5565b5f5b82811015611e6e57848901518255600182019150602085019450602081019050611e49565b86831015611e8b5784890151611e87601f891682611b50565b8355505b6001600288020188555050505b505050505050565b7f4d616368696e652049442063616e6e6f7420626520656d7074790000000000005f82015250565b5f611ed4601a836114c3565b9150611edf82611ea0565b602082019050919050565b5f6020820190508181035f830152611f0181611ec8565b9050919050565b7f5075626c6963206b65792063616e6e6f7420626520656d7074790000000000005f82015250565b5f611f3c601a836114c3565b9150611f4782611f08565b602082019050919050565b5f6020820190508181035f830152611f6981611f30565b9050919050565b7f4e6577206f776e65722063616e6e6f74206265207a65726f20616464726573735f82015250565b5f611fa46020836114c3565b9150611faf82611f70565b602082019050919050565b5f6020820190508181035f830152611fd181611f98565b9050919050565b7f4f6e6c79206f776e65722063616e2063616c6c20746869732066756e6374696f5f8201527f6e00000000000000000000000000000000000000000000000000000000000000602082015250565b5f6120326021836114c3565b915061203d82611fd8565b604082019050919050565b5f6020820190508181035f83015261205f81612026565b9050919050565b7f4d616368696e65204944206e6f7420666f756e640000000000000000000000005f82015250565b5f61209a6014836114c3565b91506120a582612066565b602082019050919050565b5f6020820190508181035f8301526120c78161208e565b9050919050565b7f5075626c6963206b657920616c726561647920726567697374657265640000005f82015250565b5f612102601d836114c3565b915061210d826120ce565b602082019050919050565b5f6020820190508181035f83015261212f816120f6565b9050919050565b7f4d616368696e6520494420616c726561647920726567697374657265640000005f82015250565b5f61216a601d836114c3565b915061217582612136565b602082019050919050565b5f6020820190508181035f8301526121978161215e565b905091905056fea264697066735822122016b64b2f9ac320ba486d664617909313a97b7fe323ba132407e6d497649dec1764736f6c634300081e0033","linkReferences":{}},"methodIdentifiers":{"getAllRegisteredMachineIds()":"b4168b1b","getMachineIdByPublicKey(string)":"773f317d","getPublicKeyByMachineId(string)":"6a1b27ed","getTotalRegisteredMachines()":"3ef62c22","isMachineIdExists(string)":"26b1c26d","isPublicKeyExists(string)":"8dddee1b","machineIdToPublicKey(string)":"848c378d","owner()":"8da5cb5b","publicKeyToMachineId(string)":"54f78446","registerMachine(string,string)":"b7286706","registeredMachineIds(uint256)":"d504c07a","removeMachine(string)":"00173cc2","renounceOwnership()":"715018a6","transferOwnership(address)":"f2fde38b","updateMachinePublicKey(string,string)":"a783e53b"},"id":21}